S023000054776F205365676D656E7473206F6E2053696E676C6520506F72742E737265631D
S11300000C942A000C9447000C9447000C9447006D
S11300100C9447000C9447000C9447000C94470040
S11300200C9447000C9447000C9447000C94470030
S11300300C9447000C9447000C9447000C94470020
S11300400C9447000C9447000C9447000C94470010
S11300500C94470011241FBECFE5D8E0DEBFCDBF0E
S113006010E0A0E6B0E0E4E5F3E002C005900D92F4
S1130070AA36B107D9F720E0AAE6B0E001C01D9284
S1130080A137B207E1F70E9419010C94A8010C945E
S113009000000E94A00008950E94B90008950F93E3
S11300A01F93CF93DF93082F162FD42FC22F6FEFF8
S11300B00E94960141E06D2F812F0E945A01CC23AA
S11300C019F0C13039F00BC040E06D2F812F0E9430
S11300D01E0105C041E06D2F812F0E941E01009377
S11300E0700010936D00D0936E00C0936F00DF9189
S11300F0CF911F910F910895682F809170000E94F5
S11301009F01089560E0809170000E949F0108950E
S1130110442329F0413031F40E941E01089540E047
S11301200E941E010895442319F0413029F00895D6
S113013041E00E941E01089540E00E941E010895BE
S113014020E040E062E080E00E944F0020E041E0D7
S113015062E080E00E944F000E94820040E060E084
S113016082E00E94880040E061E082E00E94930007
S11301700895CF9340E060E082E00E94880040E070
S113018061E082E00E949300E0916C00CDECEC9F72
S1130190812D1124869586958695880F982F990F21
S11301A0990F890FE81BF0E0E05AFF4F80810E940D
S11301B07C0083EC99E00197F1F700C0000040E077
S11301C061E082E00E94880040E060E082E00E94FA
S11301D09300E0916C00EC9FE12D1124E695E695E7
S11301E0E695F0E0E05AFF4F80810E947C0083ECAA
S11301F099E00197F1F700C0000080916A009091A6
S11302006B00019690936B0080936A00C29749F447
S113021010926B0010926A0080916C008F5F809343
S11302206C0080916C00843611F410926C00CF91B4
S113023008950E9449000E944C00FDCF4130D9F43A
S1130240882319F0823061F008952BB381E090E0A7
S113025002C0880F991F6A95E2F7822B8BBB089521
S113026025B381E090E002C0880F991F6A95E2F7F8
S1130270822B85BB089541111CC0882319F082305C
S113028069F008952BB381E090E002C0880F991FB4
S11302906A95E2F7809582238BBB089525B381E0AC
S11302A090E002C0880F991F6A95E2F78095822337
S11302B085BB08954130D9F4882319F0823061F068
S11302C008952AB381E090E002C0880F991F6A95CF
S11302D0E2F7822B8ABB089524B381E090E002C048
S11302E0880F991F6A95E2F7822B84BB0895411108
S11302F01CC0882319F0823069F008952AB381E084
S113030090E002C0880F991F6A95E2F780958223D6
S11303108ABB089524B381E090E002C0880F991F3E
S11303206A95E2F78095822384BB0895882319F0A7
S1130330823019F008956ABB089564BB0895882338
S113034019F0823019F008956BBB089565BB0895C8
S1070350F894FFCF4B
S10D03543F065B4F666D7D077F6F67
S9030000FC
